{"abi":[{"type":"constructor","inputs":[{"name":"vrfCoordinatorV2","type":"address","internalType":"address"},{"name":"entranceFee","type":"uint256","internalType":"uint256"},{"name":"gas_lane","type":"bytes32","internalType":"bytes32"},{"name":"sub_id","type":"uint64","internalType":"uint64"},{"name":"callbackGasLimit","type":"uint32","internalType":"uint32"},{"name":"interval","type":"uint256","internalType":"uint256"}],"stateMutability":"nonpayable"},{"type":"function","name":"checkUpkeep","inputs":[{"name":"","type":"bytes","internalType":"bytes"}],"outputs":[{"name":"upKeepNeeded","type":"bool","internalType":"bool"},{"name":"","type":"bytes","internalType":"bytes"}],"stateMutability":"view"},{"type":"function","name":"getEntranceFee","inputs":[],"outputs":[{"name":"","type":"uint256","internalType":"uint256"}],"stateMutability":"view"},{"type":"function","name":"getInterval","inputs":[],"outputs":[{"name":"","type":"uint256","internalType":"uint256"}],"stateMutability":"view"},{"type":"function","name":"getLastTimeStamp","inputs":[],"outputs":[{"name":"","type":"uint256","internalType":"uint256"}],"stateMutability":"view"},{"type":"function","name":"getLotteryState","inputs":[],"outputs":[{"name":"","type":"uint8","internalType":"enum Lottery.lotteryState"}],"stateMutability":"view"},{"type":"function","name":"getNumberOfPlayers","inputs":[],"outputs":[{"name":"","type":"uint256","internalType":"uint256"}],"stateMutability":"view"},{"type":"function","name":"getPlayers","inputs":[{"name":"index","type":"uint256","internalType":"uint256"}],"outputs":[{"name":"","type":"address","internalType":"address"}],"stateMutability":"view"},{"type":"function","name":"getRecentWinner","inputs":[],"outputs":[{"name":"","type":"address","internalType":"address"}],"stateMutability":"view"},{"type":"function","name":"participateLottery","inputs":[],"outputs":[],"stateMutability":"payable"},{"type":"function","name":"performUpkeep","inputs":[{"name":"","type":"bytes","internalType":"bytes"}],"outputs":[],"stateMutability":"nonpayable"},{"type":"function","name":"rawFulfillRandomWords","inputs":[{"name":"requestId","type":"uint256","internalType":"uint256"},{"name":"randomWords","type":"uint256[]","internalType":"uint256[]"}],"outputs":[],"stateMutability":"nonpayable"},{"type":"event","name":"lotteryEnter","inputs":[{"name":"player","type":"address","indexed":true,"internalType":"address"}],"anonymous":false},{"type":"event","name":"requestedLotteryWinner","inputs":[{"name":"requestId","type":"uint256","indexed":true,"internalType":"uint256"}],"anonymous":false},{"type":"event","name":"winnerPicked","inputs":[{"name":"winner","type":"address","indexed":true,"internalType":"address"}],"anonymous":false},{"type":"error","name":"OnlyCoordinatorCanFulfill","inputs":[{"name":"have","type":"address","internalType":"address"},{"name":"want","type":"address","internalType":"address"}]},{"type":"error","name":"Raffle_notEnoughETHentered","inputs":[]},{"type":"error","name":"lotteryUpKeepNotNeeded","inputs":[{"name":"cuurentBalance","type":"uint256","internalType":"uint256"},{"name":"numPlayers","type":"uint256","internalType":"uint256"},{"name":"lotteryState","type":"uint256","internalType":"uint256"}]},{"type":"error","name":"lottery_notOpen","inputs":[]},{"type":"error","name":"lottery_transaction_failed","inputs":[]}],"bytecode":{"object":"0x61016060405234801561001157600080fd5b50604051610d2f380380610d2f83398101604081905261003091610081565b6001600160a01b0395909516608081905260a09490945260c09390935260e0919091526001600160401b03166101005263ffffffff16610120526003805460ff19169055426002556101405261010c565b60008060008060008060c0878903121561009a57600080fd5b86516001600160a01b03811681146100b157600080fd5b6020880151604089015160608a015192985090965094506001600160401b03811681146100dd57600080fd5b608088015190935063ffffffff811681146100f757600080fd5b8092505060a087015190509295509295509295565b60805160a05160c05160e051610100516101205161014051610bb561017a600039600081816101e001526104d9015260006103a9015260006103710152600061034b015260006103e501526000818160b00152610558015260008181610239015261027b0152610bb56000f3fe60806040526004361061009c5760003560e01c80636b68c03c116100645780636b68c03c1461017b5780636e04ff0d1461019b5780638357f987146101c957806391ad27b4146101d1578063c1c244e814610204578063fd6673f51461021957600080fd5b806309bc33a7146100a15780631fe543e3146100e35780634585e33b14610105578063460e204914610125578063473f1ddc1461015d575b600080fd5b3480156100ad57600080fd5b507f00000000000000000000000000000000000000000000000000000000000000005b6040519081526020015b60405180910390f35b3480156100ef57600080fd5b506101036100fe36600461089e565b61022e565b005b34801561011157600080fd5b50610103610120366004610950565b6102bb565b34801561013157600080fd5b506101456101403660046109c2565b610486565b6040516001600160a01b0390911681526020016100da565b34801561016957600080fd5b506001546001600160a01b0316610145565b34801561018757600080fd5b5060035460ff166040516100da91906109f1565b3480156101a757600080fd5b506101bb6101b6366004610a19565b6104b5565b6040516100da929190610aae565b610103610556565b3480156101dd57600080fd5b507f00000000000000000000000000000000000000000000000000000000000000006100d0565b34801561021057600080fd5b506002546100d0565b34801561022557600080fd5b506000546100d0565b336001600160a01b037f000000000000000000000000000000000000000000000000000000000000000016146102ad5760405163073e64fd60e21b81523360048201526001600160a01b037f00000000000000000000000000000000000000000000000000000000000000001660248201526044015b60405180910390fd5b6102b7828261063a565b5050565b60006102d5604051806020016040528060008152506104b5565b5090508061032d576102e630610771565b60005460035447919060ff166001811115610303576103036109db565b6040516380970a8b60e01b81526004810193909352602483019190915260448201526064016102a4565b6003805460ff1916600190811782556040516305d3b1d360e41b81527f000000000000000000000000000000000000000000000000000000000000000060048201527f000000000000000000000000000000000000000000000000000000000000000067ffffffffffffffff16602482015260448101929092527f000000000000000000000000000000000000000000000000000000000000000063ffffffff16606483015260848201526000906001600160a01b037f00000000000000000000000000000000000000000000000000000000000000001690635d3b1d309060a4016020604051808303816000875af115801561042e573d6000803e3d6000fd5b505050506040513d601f19601f820116820180604052508101906104529190610b07565b60405190915081907f8436886e362e85384c64d5af46721d434cb451102c48870819d9f8420f55317690600090a250505050565b600080828154811061049a5761049a610b20565b6000918252602090912001546001600160a01b031692915050565b60006060818060035460ff1660018111156104d2576104d26109db565b14905060007f0000000000000000000000000000000000000000000000000000000000000000600254426105069190610b36565b60005491109150151547151582801561051c5750835b80156105255750805b801561052e5750815b60408051808201909152600381526203078360ec1b6020820152909890975095505050505050565b7f0000000000000000000000000000000000000000000000000000000000000000341015610597576040516395e2580960e01b815260040160405180910390fd5b600060035460ff1660018111156105b0576105b06109db565b146105ce576040516334056ad760e21b815260040160405180910390fd5b600080546001810182558180527f290decd9548b62a8d60345a988386fc84ba6bc95484008f6362f93160ef3e5630180546001600160a01b0319163390811790915560405190917f6ba87006f2c53f2d227d45b3400034f16dbf4f6842816c4880d30170f3a6a16091a2565b6000805482518390839061065057610650610b20565b60200260200101516106629190610b5d565b9050600080828154811061067857610678610b20565b6000918252602082200154600180546001600160a01b0319166001600160a01b039092169182179055604051909250829047908381818185875af1925050503d80600081146106e3576040519150601f19603f3d011682016040523d82523d6000602084013e6106e8565b606091505b505090508061070a57604051630882cfdd60e01b815260040160405180910390fd5b6040516001600160a01b038316907f794919b0f484b8e90b1b817ac7f880f846fbd8a9813dee2a378e820db094e3d190600090a26040805160008082526020820192839052905161075b92906107dd565b50504260025550506003805460ff191690555050565b6040516001600160a01b03821660248201526107b99060440160408051601f198184030181529190526020810180516001600160e01b031663161765e160e11b1790526107bc565b50565b80516a636f6e736f6c652e6c6f67602083016000808483855afa5050505050565b828054828255906000526020600020908101928215610832579160200282015b8281111561083257825182546001600160a01b0319166001600160a01b039091161782556020909201916001909101906107fd565b5061083e929150610842565b5090565b5b8082111561083e5760008155600101610843565b634e487b7160e01b600052604160045260246000fd5b604051601f8201601f1916810167ffffffffffffffff8111828210171561089657610896610857565b604052919050565b600080604083850312156108b157600080fd5b8235915060208084013567ffffffffffffffff808211156108d157600080fd5b818601915086601f8301126108e557600080fd5b8135818111156108f7576108f7610857565b8060051b915061090884830161086d565b818152918301840191848101908984111561092257600080fd5b938501935b8385101561094057843582529385019390850190610927565b8096505050505050509250929050565b6000806020838503121561096357600080fd5b823567ffffffffffffffff8082111561097b57600080fd5b818501915085601f83011261098f57600080fd5b81358181111561099e57600080fd5b8660208285010111156109b057600080fd5b60209290920196919550909350505050565b6000602082840312156109d457600080fd5b5035919050565b634e487b7160e01b600052602160045260246000fd5b6020810160028310610a1357634e487b7160e01b600052602160045260246000fd5b91905290565b60006020808385031215610a2c57600080fd5b823567ffffffffffffffff80821115610a4457600080fd5b818501915085601f830112610a5857600080fd5b813581811115610a6a57610a6a610857565b610a7c601f8201601f1916850161086d565b91508082528684828501011115610a9257600080fd5b8084840185840137600090820190930192909252509392505050565b82151581526000602060406020840152835180604085015260005b81811015610ae557858101830151858201606001528201610ac9565b506000606082860101526060601f19601f830116850101925050509392505050565b600060208284031215610b1957600080fd5b5051919050565b634e487b7160e01b600052603260045260246000fd5b81810381811115610b5757634e487b7160e01b600052601160045260246000fd5b92915050565b600082610b7a57634e487b7160e01b600052601260045260246000fd5b50069056fea2646970667358221220e60f0462f26eac139b6d364790ff24a31552a7e8350084960d7b49c9eb7c53a164736f6c63430008190033","linkReferences":{}},"methodIdentifiers":{"checkUpkeep(bytes)":"6e04ff0d","getEntranceFee()":"09bc33a7","getInterval()":"91ad27b4","getLastTimeStamp()":"c1c244e8","getLotteryState()":"6b68c03c","getNumberOfPlayers()":"fd6673f5","getPlayers(uint256)":"460e2049","getRecentWinner()":"473f1ddc","participateLottery()":"8357f987","performUpkeep(bytes)":"4585e33b","rawFulfillRandomWords(uint256,uint256[])":"1fe543e3"},"id":33}